:100000000C9462000C948A000C948A000C948A0070
:100010000C948A000C948A000C948A000C948A0038
:100020000C948A000C948A000C948A000C9481042D
:100030000C948A000C948A000C948A000C948A0018
:100040000C94DF030C948A000C944F040C94290444
:100050000C948A000C948A000C948A000C948A00F8
:100060000C948A000C948A000000000024002700F1
:100070002A0000000000250028002B0000000000DE
:1000800023002600290004040404040404040202DA
:100090000202020203030303030301020408102007
:1000A0004080010204081020010204081020000012
:1000B0000008000201000003040700000000000027
:1000C0000000580511241FBECFEFD8E0DEBFCDBF22
:1000D00011E0A0E0B1E0E2EBF6E102C005900D9284
:1000E000AE31B107D9F722E0AEE1B1E001C01D9217
:1000F000AD3AB207E1F710E0C2E6D0E004C02197C4
:10010000FE010E94510BC136D107C9F70E949C0520
:100110000C94570B0C940000833081F028F481304C
:1001200099F08230A9F008958730A9F08830C9F09D
:100130008430B1F4809180008F7D03C08091800075
:100140008F7780938000089584B58F7784BD08955C
:1001500084B58F7DFBCF8091B0008F778093B00006
:1001600008958091B0008F7DF9CFCF93DF93282F32
:1001700030E0F901E255FF4F8491F901E656FF4F57
:10018000D491F901EA57FF4FC491CC23A1F081111A
:100190000E948C00EC2FF0E0EE0FFF1FE458FF4FA1
:1001A000A591B491EC91ED2381E090E009F480E019
:1001B000DF91CF91089580E090E0FACF1F93CF9325
:1001C000DF93282F30E0F901E255FF4F8491F901C8
:1001D000E656FF4FD491F901EA57FF4FC491CC2363
:1001E000A9F0162F81110E948C00EC2FF0E0EE0F89
:1001F000FF1FEE58FF4FA591B4918FB7F894EC9183
:10020000111108C0D095DE23DC938FBFDF91CF9111
:100210001F910895DE2BF8CFCF93DF9390E0FC0180
:10022000E656FF4F24918A579F4FFC018491882303
:10023000D1F090E0880F991FFC01E859FF4FA5917C
:10024000B491FC01EE58FF4FC591D49161110EC0DD
:100250009FB7F8948C91E22FE0958E238C932881A0
:10026000E223E8839FBFDF91CF9108958FB7F89481
:10027000EC91E22BEC938FBFF6CF3FB7F8948091CF
:10028000FA019091FB01A091FC01B091FD0126B50E
:10029000A89B05C02F3F19F00196A11DB11D3FBFBE
:1002A000BA2FA92F982F8827BC01CD01620F711D8D
:1002B000811D911D42E0660F771F881F991F4A9587
:1002C000D1F708958F929F92AF92BF92CF92DF9213
:1002D000EF92FF920E943D014B015C0184E6C82E23
:1002E000D12CE12CF12C0E943D01681979098A0971
:1002F0009B09683E734081059105A8F321E0C21A6D
:10030000D108E108F10888EE880E83E0981EA11C50
:10031000B11CC114D104E104F10429F7FF90EF905E
:10032000DF90CF90BF90AF909F908F900895AF9245
:10033000BF92CF92DF92EF92FF920F931F93CF93D2
:10034000DF936C017B018B01040F151FEB015E0134
:10035000AE18BF08C017D10759F06991D601ED91C9
:10036000FC910190F081E02DC6010995892B79F768
:10037000C501DF91CF911F910F91FF90EF90DF901A
:10038000CF90BF90AF900895FC01538D448D252FE1
:1003900030E0842F90E0821B930B541710F0CF961F
:1003A000089501970895FC01918D828D981761F051
:1003B000A28DAE0FBF2FB11D5D968C91928D9F5F68
:1003C0009F73928F90E008958FEF9FEF0895FC0147
:1003D000918D828D981731F0828DE80FF11D858DFA
:1003E00090E008958FEF9FEF0895FC01918D228D8D
:1003F000892F90E0805C9F4F821B91098F73992712
:1004000008958EEF91E00E94F50121E0892B09F417
:1004100020E0822F089580E090E0892B29F00E944F
:10042000010281110C9400000895FC01A48DA80F15
:10043000B92FB11DA35ABF4F2C91848D90E0019626
:100440008F739927848FA689B7892C93A089B18946
:100450008C91837080648C93938D848D981306C0E7
:100460000288F389E02D80818F7D80830895EF924B
:10047000FF920F931F93CF93DF93EC0181E0888F5E
:100480009B8D8C8D98131AC0E889F989808185FF2E
:1004900015C09FB7F894EE89FF896083E889F989D0
:1004A00080818370806480839FBF81E090E0DF91D2
:1004B000CF911F910F91FF90EF900895F62E0B8D25
:1004C00010E00F5F1F4F0F731127E02E8C8D8E11E0
:1004D0000CC00FB607FCFACFE889F989808185FF47
:1004E000F5CFCE010E941502F1CFEB8DEC0FFD2F61
:1004F000F11DE35AFF4FF0829FB7F8940B8FEA8902
:10050000FB8980818062CFCFCF93DF93EC01888D10
:100510008823B9F0AA89BB89E889F9898C9185FD7E
:1005200003C0808186FD0DC00FB607FCF7CF8C910C
:1005300085FFF2CF808185FFEDCFCE010E941502AD
:10054000E9CFDF91CF9108958F929F92AF92BF92A2
:10055000FF920F931F93CF93DF93FC01F0808BE00A
:100560008F1508F44AC0828108E512E0081B1109C2
:1005700087FD1395000F111F000F111F8181C8E81F
:10058000D0E0C81BD10987FDD395CC0FDD1FCC0F60
:10059000DD1F4E010D2E000CAA08BB089801012E8C
:1005A000000C440B550B281939094A095B09DB017A
:1005B0000E94460924EB30E040E050E00E941C0914
:1005C000820E931EA41EB51E8C169D062CF0E8010B
:1005D000801691060CF4E4012297CC0FDD1F2FB793
:1005E000F8948F2D90E0FC01EE0FFF1FE80FF91F2C
:1005F000E05EFE4FD283C1832FBFDF91CF911F9169
:100600000F91FF90BF90AF909F908F9008951F9390
:10061000CF93DF93EC01162F88818C3008F04EC009
:1006200061E0812F0E940C018881282F30E0F901C0
:10063000EE0FFF1FE20FF31FE05EFE4F1F7360819E
:10064000607C612B608319821A822CE0622F0E94E9
:100650001D0B829FB001112430E020E0AB01420F5E
:10066000531FFA01EE0FFF1FE40FF51FE05EFE4F70
:10067000908196FD16C02F5F3F4F2C30310571F7EA
:1006800081110FC01092800082E08093810010924F
:10069000850010928400B19A80916F0082608093EF
:1006A0006F00E8818E2F90E0FC01EE0FFF1FE80F36
:1006B000F91FE05EFE4F8081806480838881DF9136
:1006C000CF911F910895FC0101900020E9F7319727
:1006D000AF01481B590BBC018EEF91E00C949701C0
:1006E0008F929F92AF92BF920F931F93CF93DF93FE
:1006F000CDB7DEB7A1970FB6F894DEBF0FBECDBF62
:1007000019A2423008F44AE08E010F5D1F4F842E7B
:10071000912CB12CA12CA50194010E944E09E62F29
:10072000B901CA01EA30F4F4E05DD801EE938D011D
:10073000232B242B252B79F790E080E0109719F0DC
:10074000CD010E946303A1960FB6F894DEBF0FBEE1
:10075000CDBFDF91CF911F910F91BF90AF909F9030
:100760008F900895E95CE1CFCF92DF92EF92FF92F4
:10077000CF93DF936B017C016DE28EEF91E00E94DD
:100780003702EC0166277727CB016C197D098E09AA
:100790009F094AE00E9470038C0F9D1FDF91CF914B
:1007A000FF90EF90DF90CF900895BC01990F880BD8
:1007B000990B97FD0C94B4034AE00C9470031F92BC
:1007C0000F920FB60F9211242F933F938F939F9305
:1007D000AF93BF938091F6019091F701A091F8013A
:1007E000B091F9013091F50123E0230F2D3758F531
:1007F0000196A11DB11D2093F5018093F601909300
:10080000F701A093F801B093F9018091FA0190915A
:10081000FB01A091FC01B091FD010196A11DB11D4C
:100820008093FA019093FB01A093FC01B093FD012A
:10083000BF91AF919F918F913F912F910F900FBEDC
:100840000F901F90189526E8230F0296A11DB11D49
:10085000D2CF1F920F920FB60F9211242F933F9376
:100860004F935F936F937F938F939F93AF93BF93B8
:10087000EF93FF938EEF91E00E941502FF91EF91AD
:10088000BF91AF919F918F917F916F915F914F91A8
:100890003F912F910F900FBE0F901F9018951F92B0
:1008A0000F920FB60F9211242F938F939F93EF9374
:1008B000FF93E0910E02F0910F028081E09114020B
:1008C000F091150282FD1BC09081809117028F5F0D
:1008D0008F7320911802821741F0E0911702F0E027
:1008E000E250FE4F958F80931702FF91EF919F91F9
:1008F0008F912F910F900FBE0F901F9018958081B0
:10090000F4CF1F920F920FB60F9211242F933F93A3
:100910004F935F936F937F938F939F93AF93BF9307
:10092000CF93DF93EF93FF9380911E01C0911F013E
:10093000D0E087FF24C0109285001092840080913F
:100940001E018F5F80931E0180911E01082E000CF6
:10095000990B8C179D0724F480911E018C30C4F1F3
:100960008091840090918500049680349C4908F41D
:100970007AC08091840090918500049676C0809121
:100980001E01082E000C990B8C179D07C4F6E091F0
:100990001E018E2FEE0F990BFC01EE0FFF1FE80FCB
:1009A000F91FE05EFE4F808186FFC9CFE0911E01F6
:1009B0008E2FEE0F990BFC01EE0FFF1FE80FF91FB2
:1009C000E05EFE4F808160E08F730E94DE00B7CF53
:1009D0002091840030918500E0911E018E2FEE0F52
:1009E000990BFC01EE0FFF1FE80FF91FE05EFE4FB1
:1009F00081819281820F931F909389008093880058
:100A0000E0911E018E2FEE0F990BFC01EE0FFF1FE0
:100A1000E80FF91FE05EFE4F808186FF11C0E09174
:100A20001E018E2FEE0F990BFC01EE0FFF1FE80F3A
:100A3000F91FE05EFE4F808161E08F730E94DE004F
:100A4000FF91EF91DF91CF91BF91AF919F918F91E6
:100A50007F916F915F914F913F912F910F900FBEBA
:100A60000F901F90189580E49CE9909389008093E3
:100A700088008FEF80931E01E3CFFC0190911F014E
:100A80009C3098F481E0890F80931F019083892F17
:100A900090E0FC01EE0FFF1FE80FF91FE05EFE4F34
:100AA00088EB9BE09283818308958FEF8083089584
:100AB000EEEFF1E01382128288EE93E0A0E0B0E066
:100AC00084839583A683B78384E091E091838083B8
:100AD00085EC90E09587848784EC90E09787868703
:100AE00080EC90E0918B808B81EC90E0938B828BFB
:100AF00082EC90E0958B848B86EC90E0978B868BD4
:100B0000118E128E138E148E8AEA92E00E943D0599
:100B100087EA92E00E943D0584EA92E00E943D054A
:100B200081EA92E00E943D058EE992E00E943D0537
:100B30008BE992E00C943D05CF93DF93CDB7DEB700
:100B400028970FB6F894DEBF0FBECDBF789484B55A
:100B5000826084BD84B5816084BD85B5826085BDB9
:100B600085B5816085BD80916E00816080936E0047
:100B70001092810080918100826080938100809139
:100B800081008160809381008091800081608093EA
:100B900080008091B10084608093B1008091B000AA
:100BA00081608093B00080917A00846080937A00A5
:100BB00080917A00826080937A0080917A008160CF
:100BC00080937A0080917A00806880937A001092F6
:100BD000C100E0910E02F0910F0282E08083E0916B
:100BE0000A02F0910B021082E0910C02F0910D02CA
:100BF00080E1808310921602E0911202F0911302BC
:100C000086E08083E0911002F09111028081806182
:100C10008083E0911002F0911102808188608083CE
:100C2000E0911002F0911102808180688083E09150
:100C30001002F091110280818F7D808360E08AE054
:100C40000E940C0160E08BE00E940C0162E070E009
:100C50008AEA92E00E94070370E060E08AEA92E08C
:100C60000E94A40263E070E087EA92E00E9407031A
:100C700070E060E087EA92E00E94A40265E070E024
:100C800084EA92E00E94070370E060E084EA92E068
:100C90000E94A40266E070E081EA92E00E940703ED
:100CA00070E060E081EA92E00E94A40264E070E0FB
:100CB0008EE992E00E94070370E060E08EE992E026
:100CC0000E94A40250E4252E00E010E03324339467
:100CD0000E943D01C090F101D090F201E090F3013B
:100CE000F090F4019B01AC012C193D094E095F09FC
:100CF00069017A016093F1017093F2018093F3012D
:100D00009093F4018091ED019091EE01A091EF019B
:100D1000B091F0018C199D09AE09BF09B7FD12C051
:100D20008093ED019093EE01A093EF01B093F00159
:100D30000115110569F20E940102882349F20E94FF
:100D40000000C6CF8053984FAF4FBF4F8093ED0147
:100D50009093EE01A093EF01B093F00120927C00FC
:100D600080917A00806480937A0080917A0086FD79
:100D7000FCCF609178007091790080906001909034
:100D80006101A0906201B090630140905C015090BD
:100D90005D0160905E0170905F01072E000C880B72
:100DA000990B0E94240A6B017C0126EB37E543E591
:100DB0005DE3C501B4010E94B00A9B01AC01C7010B
:100DC000B6010E947F096B017C0124E439E14AEB02
:100DD0005EE3C301B2010E94B00A9B01AC01C701EE
:100DE000B6010E947F0980925C0190925D01A09201
:100DF0005E01B0925F016093600170936101809326
:100E0000620190936301C0905801D0905901E09025
:100E10005A01F0905B0120915401309155014091AD
:100E200056015091570129833A834B835C8324E711
:100E300031E148E95CE30E94B00A6D837E838F83D1
:100E4000988724E731E148E15DE3C501B4010E94E0
:100E5000B00A9B01AC016D817E818F8198850E94D3
:100E600080094B015C0124E731E148E95CE3C301FF
:100E7000B2010E94B00A9B01AC01C501B4010E94FD
:100E800080094B015C012BEE39E14AE05FE3C701C9
:100E9000B6010E94B00A9B01AC01C501B4010E94D9
:100EA00080094B015C0122EB38E94BEC5EE3698180
:100EB0007A818B819C810E94B00A9B01AC01C501A3
:100EC000B4010E947F092B013C01C0925401D092D1
:100ED0005501E0925601F09257014092580150920C
:100EE000590160925A0170925B018090500190907C
:100EF0005101A0905201B090530180914C0190910A
:100F00004D01A0914E01B0914F018D839E83AF831F
:100F1000B88720E030E040E050ECC701B6010E9405
:100F2000B00AA30192010E94800929813A814B8174
:100F30005C810E9480096B017C012DEB36E442EF5D
:100F40005EE3C501B4010E94B00A9B01AC01C70178
:100F5000B6010E947F096B017C0121EE3AE145E375
:100F60005FE36D817E818F8198850E94B00A9B012D
:100F7000AC01C701B6010E947F092B013C018092A0
:100F80004C0190924D01A0924E01B0924F014092BF
:100F90005001509251016092520170925301C090E1
:100FA0004801D0904901E0904A01F0904B01209116
:100FB00044013091450140914601509147012983F8
:100FC0003A834B835C83A5019401C501B4010E945F
:100FD0008009A30192010E9480092D813E814F81E9
:100FE00058850E9480094B015C012DE235E440E800
:100FF0005FE3C701B6010E94B00A9B01AC01C501C5
:10100000B4010E9480094B015C0123E935EC4EE3F9
:101010005FE369817A818B819C810E94B00A9B0188
:10102000AC01C501B4010E947F094B015C01C09273
:101030004401D0924501E0924601F092470180922E
:10104000480190924901A0924A01B0924B0120E0E0
:1010500030E040E050ECC701B6010E94B00AA501A3
:1010600094010E94800929813A814B815C810E9410
:1010700080090E94EC094B019B0177FF04C02227E5
:101080003327261B370B8091E4019091E501FC0189
:10109000EE0FFF1FEC59FE4FE090E601F090E701E4
:1010A00040815181E41AF50AE20EF31EF092E70145
:1010B000E092E60131832083019660E470E00E94B3
:1010C000290B9093E5018093E401F7FE03C03FE311
:1010D000E30EF11C86E0F594E7948A95E1F7EE0CB7
:1010E000FF1C8AE00E94B5008BE00E94B5004DE332
:1010F000E416F1040CF456C02FB7F8948091F60171
:101100009091F701A091F801B091F9012FBF4091A2
:10111000E9015091EA016091EB017091EC01841BAF
:10112000950BA60BB70B813F9105A105B105D0F139
:101130008091E801882309F45AC070E060E081EAF8
:1011400092E00E94A40270E060E08AEA92E00E94CD
:10115000A40270E060E087EA92E00E94A40270E0DE
:1011600060E084EA92E00E94A40270E060E08EE910
:1011700092E00E94A4021092E8012FB7F8948091A7
:10118000F6019091F701A091F801B091F9012FBFFC
:101190008093E9019093EA01A093EB01B093EC01F5
:1011A0000E94620182E191E00E946303C4010E94F7
:1011B000D50384E191E00E946303B7010F2C000C7A
:1011C000880B990BF7FE34C00E94B40386E191E0CE
:1011D0000E94630384E191E00E9463038CE390E04A
:1011E0000E94D50389E191E00E946303A1CD64EBE5
:1011F00070E081EA92E00E94A40264EB70E08AEA67
:1012000092E00E94A40264EB70E087EA92E00E9400
:10121000A40264EB70E084EA92E00E94A40264EB12
:1012200070E08EE992E00E94A4023092E801A5CF1E
:101230004AE00E947003CACF052E97FB1EF400946B
:101240000E94330957FD07D00E944E0907FC03D0C6
:101250004EF40C94330950954095309521953F4FAD
:101260004F4F5F4F089590958095709561957F4F92
:101270008F4F9F4F08950E947009A59F900DB49FB6
:10128000900DA49F800D911D11240895B7FF0C941B
:101290003B090E943B09821B930B0895A1E21A2E81
:1012A000AA1BBB1BFD010DC0AA1FBB1FEE1FFF1F0A
:1012B000A217B307E407F50720F0A21BB30BE40B5A
:1012C000F50B661F771F881F991F1A9469F76095A1
:1012D0007095809590959B01AC01BD01CF0108955B
:1012E000A29FB001B39FC001A39F700D811D112467
:1012F000911DB29F700D811D1124911D08955058AC
:10130000BB27AA270E9497090C94760A0E94680AB4
:1013100038F00E946F0A20F039F49F3F19F426F448
:101320000C94650A0EF4E095E7FB0C945F0AE92F34
:101330000E94870A58F3BA17620773078407950754
:1013400020F079F4A6F50C94A90A0EF4E0950B2E82
:10135000BA2FA02D0B01B90190010C01CA01A00107
:101360001124FF27591B99F0593F50F4503E68F162
:101370001A16F040A22F232F342F4427585FF3CFA3
:10138000469537952795A795F0405395C9F77EF474
:101390001F16BA0B620B730B840BBAF09150A1F0BD
:1013A000FF0FBB1F661F771F881FC2F70EC0BA0F43
:1013B000621F731F841F48F4879577956795B795CB
:1013C000F7959E3F08F0B0CF9395880F08F09927C6
:1013D000EE0F9795879508950E94F3096894B111CF
:1013E0000C94AA0A08950E948F0A88F09F5798F0DB
:1013F000B92F9927B751B0F0E1F0660F771F881F1A
:10140000991F1AF0BA95C9F714C0B13091F00E9433
:10141000A90AB1E008950C94A90A672F782F8827AC
:10142000B85F39F0B93FCCF3869577956795B3955A
:10143000D9F73EF490958095709561957F4F8F4FC9
:101440009F4F0895E89409C097FB3EF490958095CE
:10145000709561957F4F8F4F9F4F9923A9F0F92F7A
:1014600096E9BB279395F695879577956795B795F8
:10147000F111F8CFFAF4BB0F11F460FF1BC06F5FDE
:101480007F4F8F4F9F4F16C0882311F096E911C0F0
:10149000772321F09EE8872F762F05C0662371F011
:1014A00096E8862F70E060E02AF09A95660F771F25
:1014B000881FDAF7880F9695879597F9089597F919
:1014C0009F6780E870E060E008959FEF80EC0895EA
:1014D00000240A9416161706180609060895002413
:1014E0000A9412161306140605060895092E03948D
:1014F000000C11F4882352F0BB0F40F4BF2B11F401
:1015000060FF04C06F5F7F4F8F4F9F4F089557FD5F
:101510009058440F551F59F05F3F71F04795880F61
:1015200097FB991F61F09F3F79F0879508951216F8
:1015300013061406551FF2CF4695F1DF08C01616A4
:1015400017061806991FF1CF869571056105089455
:101550000895E894BB2766277727CB0197F908956C
:101560000E94C30A0C94760A0E94680A38F00E940E
:101570006F0A20F0952311F00C945F0A0C94650A11
:1015800011240C94AA0A0E94870A70F3959FC1F354
:10159000950F50E0551F629FF001729FBB27F00D21
:1015A000B11D639FAA27F00DB11DAA1F649F662776
:1015B000B00DA11D661F829F2227B00DA11D621FC5
:1015C000739FB00DA11D621F839FA00D611D221F7F
:1015D000749F3327A00D611D231F849F600D211D63
:1015E000822F762F6A2F11249F5750409AF0F1F0E6
:1015F00088234AF0EE0FFF1FBB1F661F771F881F4F
:1016000091505040A9F79E3F510580F00C945F0A1D
:101610000C94AA0A5F3FE4F3983ED4F3869577953D
:101620006795B795F795E7959F5FC1F7FE2B880FF4
:10163000911D9695879597F90895991B79E004C0B7
:10164000991F961708F0961B881F7A95C9F7809501
:10165000089597FB072E16F4009407D077FD09D064
:101660000E943D0B07FC05D03EF4909581959F4F5D
:101670000895709561957F4F0895AA1BBB1B51E19A
:1016800007C0AA1FBB1FA617B70710F0A61BB70BF2
:10169000881F991F5A95A9F780959095BC01CD0197
:1016A0000895EE0FFF1F0590F491E02D0994F89432
:0216B000FFCF6A
:1016B2000000000037029701C4018402F501D30142
:0E16C200E7015B002C000D0A005D2C200000EB
:00000001FF
